{
  "contractName": "Hello",
  "abi": [
    {
      "anonymous": false,
      "inputs": [
        {
          "indexed": true,
          "internalType": "address",
          "name": "account",
          "type": "address"
        },
        {
          "indexed": false,
          "internalType": "uint256",
          "name": "counter",
          "type": "uint256"
        }
      ],
      "name": "SetCounter",
      "type": "event"
    },
    {
      "inputs": [],
      "name": "counter",
      "outputs": [
        {
          "internalType": "uint256",
          "name": "",
          "type": "uint256"
        }
      ],
      "stateMutability": "view",
      "type": "function",
      "constant": true
    },
    {
      "inputs": [],
      "name": "setCounter",
      "outputs": [],
      "stateMutability": "nonpayable",
      "type": "function"
    },
    {
      "inputs": [],
      "name": "getCounter",
      "outputs": [
        {
          "internalType": "uint256",
          "name": "",
          "type": "uint256"
        }
      ],
      "stateMutability": "view",
      "type": "function",
      "constant": true
    }
  ],
  "bytecode": "0x608060405234801561001057600080fd5b506101f5806100206000396000f3fe608060405234801561001057600080fd5b50600436106100415760003560e01c806361bc221a146100465780638ada066e146100645780638d3945e414610082575b600080fd5b61004e61008c565b60405161005b9190610115565b60405180910390f35b61006c610092565b6040516100799190610115565b60405180910390f35b61008a61009b565b005b60005481565b60008054905090565b60016000808282546100ad9190610130565b925050819055503373ffffffffffffffffffffffffffffffffffffffff167f50ef2ca26f6df90c78b73ebc44c5627b62f425b94f8c6f6c53fca4edd4c970076000546040516100fc9190610115565b60405180910390a2565b61010f81610186565b82525050565b600060208201905061012a6000830184610106565b92915050565b600061013b82610186565b915061014683610186565b9250827fffffffffffffffffffffffffffffffffffffffffffffffffffffffffffffffff0382111561017b5761017a610190565b5b828201905092915050565b6000819050919050565b7f4e487b7100000000000000000000000000000000000000000000000000000000600052601160045260246000fdfea26469706673582212204ebec01aa9e1c3196ea21b75f2321a043b3ad0c3e7915baebcc7973318fb5eea64736f6c63430008000033",
  "immutableReferences": {},
  "source": "// SPDX-License-Identifier: MIT\npragma solidity ^0.8.0;\n\ncontract Hello {\n\n    event SetCounter(address indexed account, uint256 counter);\n\n    uint256 public counter;\n\n    function setCounter() external {\n        counter += 1;\n        emit SetCounter(msg.sender, counter);\n    }\n\n    function getCounter() external view returns (uint256) {\n        return counter;\n    }\n} ",
  "sourcePath": "/Users/tianzi/My-projects/cica/contract/contracts/Hello.sol",
  "compiler": {
    "name": "solc",
    "version": "0.8.0+commit.c7dfd78e.Emscripten.clang"
  },
  "schemaVersion": "3.4.1",
  "updatedAt": "2022-02-21T09:02:56.752Z",
  "networkType": "ethereum",
  "devdoc": {
    "kind": "dev",
    "methods": {},
    "version": 1
  },
  "userdoc": {
    "kind": "user",
    "methods": {},
    "version": 1
  }
}